{
  "contractName": "Wave",
  "abi": [
    {
      "inputs": [],
      "stateMutability": "nonpayable",
      "type": "constructor"
    },
    {
      "anonymous": false,
      "inputs": [
        {
          "indexed": false,
          "internalType": "uint256",
          "name": "id",
          "type": "uint256"
        },
        {
          "indexed": false,
          "internalType": "bool",
          "name": "completed",
          "type": "bool"
        }
      ],
      "name": "TaskCompleted",
      "type": "event"
    },
    {
      "anonymous": false,
      "inputs": [
        {
          "indexed": false,
          "internalType": "uint256",
          "name": "id",
          "type": "uint256"
        },
        {
          "indexed": false,
          "internalType": "string",
          "name": "content",
          "type": "string"
        },
        {
          "indexed": false,
          "internalType": "bool",
          "name": "completed",
          "type": "bool"
        }
      ],
      "name": "TaskCreated",
      "type": "event"
    },
    {
      "anonymous": false,
      "inputs": [
        {
          "indexed": false,
          "internalType": "uint256",
          "name": "id",
          "type": "uint256"
        },
        {
          "indexed": false,
          "internalType": "address",
          "name": "influencer",
          "type": "address"
        },
        {
          "indexed": false,
          "internalType": "uint256",
          "name": "value",
          "type": "uint256"
        }
      ],
      "name": "TaskFunded",
      "type": "event"
    },
    {
      "anonymous": false,
      "inputs": [
        {
          "indexed": false,
          "internalType": "uint256",
          "name": "id",
          "type": "uint256"
        },
        {
          "indexed": false,
          "internalType": "uint256",
          "name": "value",
          "type": "uint256"
        },
        {
          "indexed": false,
          "internalType": "address",
          "name": "influencer",
          "type": "address"
        }
      ],
      "name": "TaskPaid",
      "type": "event"
    },
    {
      "inputs": [
        {
          "internalType": "uint256",
          "name": "_id",
          "type": "uint256"
        }
      ],
      "name": "approveTask",
      "outputs": [],
      "stateMutability": "nonpayable",
      "type": "function"
    },
    {
      "inputs": [
        {
          "internalType": "string",
          "name": "_content",
          "type": "string"
        }
      ],
      "name": "createTask",
      "outputs": [],
      "stateMutability": "nonpayable",
      "type": "function"
    },
    {
      "inputs": [
        {
          "internalType": "uint256",
          "name": "_id",
          "type": "uint256"
        },
        {
          "internalType": "address payable",
          "name": "_influencer",
          "type": "address"
        }
      ],
      "name": "fundTask",
      "outputs": [],
      "stateMutability": "payable",
      "type": "function"
    },
    {
      "inputs": [],
      "name": "getContractBalance",
      "outputs": [
        {
          "internalType": "uint256",
          "name": "",
          "type": "uint256"
        }
      ],
      "stateMutability": "view",
      "type": "function"
    },
    {
      "inputs": [
        {
          "internalType": "uint256",
          "name": "_id",
          "type": "uint256"
        }
      ],
      "name": "getTask",
      "outputs": [
        {
          "internalType": "uint256",
          "name": "id",
          "type": "uint256"
        },
        {
          "internalType": "string",
          "name": "content",
          "type": "string"
        },
        {
          "internalType": "bool",
          "name": "completed",
          "type": "bool"
        },
        {
          "internalType": "address",
          "name": "influencer",
          "type": "address"
        },
        {
          "internalType": "uint256",
          "name": "value",
          "type": "uint256"
        },
        {
          "internalType": "bool",
          "name": "paid",
          "type": "bool"
        },
        {
          "internalType": "string",
          "name": "proof",
          "type": "string"
        },
        {
          "internalType": "bool",
          "name": "proofSubmitted",
          "type": "bool"
        },
        {
          "internalType": "string",
          "name": "rejectionNote",
          "type": "string"
        }
      ],
      "stateMutability": "view",
      "type": "function"
    },
    {
      "inputs": [
        {
          "internalType": "uint256",
          "name": "_id",
          "type": "uint256"
        }
      ],
      "name": "getTaskBalance",
      "outputs": [
        {
          "internalType": "uint256",
          "name": "",
          "type": "uint256"
        }
      ],
      "stateMutability": "view",
      "type": "function"
    },
    {
      "inputs": [
        {
          "internalType": "uint256",
          "name": "_id",
          "type": "uint256"
        }
      ],
      "name": "getTaskInfluencer",
      "outputs": [
        {
          "internalType": "address",
          "name": "",
          "type": "address"
        }
      ],
      "stateMutability": "view",
      "type": "function"
    },
    {
      "inputs": [
        {
          "internalType": "uint256",
          "name": "_id",
          "type": "uint256"
        },
        {
          "internalType": "string",
          "name": "_note",
          "type": "string"
        }
      ],
      "name": "rejectProof",
      "outputs": [],
      "stateMutability": "nonpayable",
      "type": "function"
    },
    {
      "inputs": [
        {
          "internalType": "uint256",
          "name": "_id",
          "type": "uint256"
        }
      ],
      "name": "releasePayment",
      "outputs": [],
      "stateMutability": "nonpayable",
      "type": "function"
    },
    {
      "inputs": [
        {
          "internalType": "uint256",
          "name": "_id",
          "type": "uint256"
        },
        {
          "internalType": "string",
          "name": "_proof",
          "type": "string"
        }
      ],
      "name": "submitProof",
      "outputs": [],
      "stateMutability": "nonpayable",
      "type": "function"
    },
    {
      "inputs": [],
      "name": "taskCount",
      "outputs": [
        {
          "internalType": "uint256",
          "name": "",
          "type": "uint256"
        }
      ],
      "stateMutability": "view",
      "type": "function"
    },
    {
      "inputs": [
        {
          "internalType": "uint256",
          "name": "",
          "type": "uint256"
        }
      ],
      "name": "tasks",
      "outputs": [
        {
          "internalType": "uint256",
          "name": "id",
          "type": "uint256"
        },
        {
          "internalType": "string",
          "name": "content",
          "type": "string"
        },
        {
          "internalType": "bool",
          "name": "completed",
          "type": "bool"
        },
        {
          "internalType": "address payable",
          "name": "influencer",
          "type": "address"
        },
        {
          "internalType": "uint256",
          "name": "value",
          "type": "uint256"
        },
        {
          "internalType": "bool",
          "name": "paid",
          "type": "bool"
        },
        {
          "internalType": "string",
          "name": "proof",
          "type": "string"
        },
        {
          "internalType": "bool",
          "name": "proofSubmitted",
          "type": "bool"
        },
        {
          "internalType": "string",
          "name": "rejectionNote",
          "type": "string"
        }
      ],
      "stateMutability": "view",
      "type": "function"
    },
    {
      "inputs": [
        {
          "internalType": "uint256",
          "name": "_id",
          "type": "uint256"
        }
      ],
      "name": "toggleCompleted",
      "outputs": [],
      "stateMutability": "nonpayable",
      "type": "function"
    }
  ],
  "bytecode": "0x6080604052600080553480156200001557600080fd5b506200005c6040518060400160405280601981526020017f46696c6d20636f6e74656e7420666f722063616d706169676e000000000000008152506200006260201b60201c565b6200051f565b600080815480929190620000769062000358565b91905055506040518061012001604052806000548152602001828152602001600015158152602001600073ffffffffffffffffffffffffffffffffffffffff16815260200160008152602001600015158152602001604051806020016040528060008152508152602001600015158152602001604051806020016040528060008152508152506001600080548152602001908152602001600020600082015181600001556020820151816001019080519060200190620001389291906200026f565b5060408201518160020160006101000a81548160ff02191690831515021790555060608201518160020160016101000a81548173ffffffffffffffffffffffffffffffffffffffff021916908373ffffffffffffffffffffffffffffffffffffffff1602179055506080820151816003015560a08201518160040160006101000a81548160ff02191690831515021790555060c0820151816005019080519060200190620001e89291906200026f565b5060e08201518160060160006101000a81548160ff021916908315150217905550610100820151816007019080519060200190620002289291906200026f565b509050507f05d0fb833127fc08168556d0e7ca9554fc3f6bc843b3b7d2bf1c35aea6bab660600054826000604051620002649392919062000477565b60405180910390a150565b8280546200027d90620004ea565b90600052602060002090601f016020900481019282620002a15760008555620002ed565b82601f10620002bc57805160ff1916838001178555620002ed565b82800160010185558215620002ed579182015b82811115620002ec578251825591602001919060010190620002cf565b5b509050620002fc919062000300565b5090565b5b808211156200031b57600081600090555060010162000301565b5090565b7f4e487b7100000000000000000000000000000000000000000000000000000000600052601160045260246000fd5b6000819050919050565b600062000365826200034e565b91507fffffffffffffffffffffffffffffffffffffffffffffffffffffffffffffffff82036200039a57620003996200031f565b5b600182019050919050565b620003b0816200034e565b82525050565b600081519050919050565b600082825260208201905092915050565b60005b83811015620003f2578082015181840152602081019050620003d5565b8381111562000402576000848401525b50505050565b6000601f19601f8301169050919050565b60006200042682620003b6565b620004328185620003c1565b935062000444818560208601620003d2565b6200044f8162000408565b840191505092915050565b60008115159050919050565b62000471816200045a565b82525050565b60006060820190506200048e6000830186620003a5565b8181036020830152620004a2818562000419565b9050620004b3604083018462000466565b949350505050565b7f4e487b7100000000000000000000000000000000000000000000000000000000600052602260045260246000fd5b600060028204905060018216806200050357607f821691505b602082108103620005195762000518620004bb565b5b50919050565b61234e806200052f6000396000f3fe6080604052600436106100c25760003560e01c8063455f50241161007f5780638d977672116100595780638d97767214610249578063a94be1c71461028e578063b6cb58a5146102cb578063cacb4f16146102f6576100c2565b8063455f5024146101cc5780636f9fb98a146101f557806388685cd914610220576100c2565b806301495294146100c75780630a07fae6146100e35780630b5da7861461010c578063111002aa146101355780631d65e77e1461015e5780632af00510146101a3575b600080fd5b6100e160048036038101906100dc919061160d565b610333565b005b3480156100ef57600080fd5b5061010a6004803603810190610105919061164d565b6104b2565b005b34801561011857600080fd5b50610133600480360381019061012e91906116df565b61058d565b005b34801561014157600080fd5b5061015c60048036038101906101579190611880565b61078d565b005b34801561016a57600080fd5b506101856004803603810190610180919061164d565b610990565b60405161019a9998979695949392919061199c565b60405180910390f35b3480156101af57600080fd5b506101ca60048036038101906101c591906116df565b610c82565b005b3480156101d857600080fd5b506101f360048036038101906101ee919061164d565b610eb6565b005b34801561020157600080fd5b5061020a610f49565b6040516102179190611a3e565b60405180910390f35b34801561022c57600080fd5b506102476004803603810190610242919061164d565b610f51565b005b34801561025557600080fd5b50610270600480360381019061026b919061164d565b6111a9565b60405161028599989796959493929190611a68565b60405180910390f35b34801561029a57600080fd5b506102b560048036038101906102b0919061164d565b6113d6565b6040516102c29190611b0a565b60405180910390f35b3480156102d757600080fd5b506102e0611416565b6040516102ed9190611a3e565b60405180910390f35b34801561030257600080fd5b5061031d6004803603810190610318919061164d565b61141c565b60405161032a9190611a3e565b60405180910390f35b60006001600084815260200190815260200160002090506000816003015414610391576040517f08c379a000000000000000000000000000000000000000000000000000000000815260040161038890611b71565b60405180910390fd5b8060040160009054906101000a900460ff16156103e3576040517f08c379a00000000000000000000000000000000000000000000000000000000081526004016103da90611bdd565b60405180910390fd5b60003411610426576040517f08c379a000000000000000000000000000000000000000000000000000000000815260040161041d90611c49565b60405180910390fd5b818160020160016101000a81548173ffffffffffffffffffffffffffffffffffffffff021916908373ffffffffffffffffffffffffffffffffffffffff1602179055503481600301819055507f9c49807a23f4d5f56e8d93c1add31e749bd0cdf1025eefe36f906ba31c0dfc688383346040516104a593929190611cc8565b60405180910390a1505050565b60006001600083815260200190815260200160002090508060060160009054906101000a900460ff1661051a576040517f08c379a000000000000000000000000000000000000000000000000000000000815260040161051190611d4b565b60405180910390fd5b8060020160009054906101000a900460ff161561056c576040517f08c379a000000000000000000000000000000000000000000000000000000000815260040161056390611db7565b60405180910390fd5b60018160020160006101000a81548160ff0219169083151502179055505050565b600060016000858152602001908152602001600020905060008160030154116105eb576040517f08c379a00000000000000000000000000000000000000000000000000000000081526004016105e290611e23565b60405180910390fd5b600073ffffffffffffffffffffffffffffffffffffffff168160020160019054906101000a900473ffffffffffffffffffffffffffffffffffffffff1673ffffffffffffffffffffffffffffffffffffffff160361067e576040517f08c379a000000000000000000000000000000000000000000000000000000000815260040161067590611e8f565b60405180910390fd5b600115158160060160009054906101000a900460ff161515146106d6576040517f08c379a00000000000000000000000000000000000000000000000000000000081526004016106cd90611efb565b60405180910390fd5b600015158160020160009054906101000a900460ff1615151461072e576040517f08c379a000000000000000000000000000000000000000000000000000000000815260040161072590611db7565b60405180910390fd5b6040518060200160405280600081525081600501908051906020019061075592919061143c565b5060008160060160006101000a81548160ff02191690831515021790555082828260070191906107869291906114c2565b5050505050565b60008081548092919061079f90611f4a565b91905055506040518061012001604052806000548152602001828152602001600015158152602001600073ffffffffffffffffffffffffffffffffffffffff1681526020016000815260200160001515815260200160405180602001604052806000815250815260200160001515815260200160405180602001604052806000815250815250600160008054815260200190815260200160002060008201518160000155602082015181600101908051906020019061085f92919061143c565b5060408201518160020160006101000a81548160ff02191690831515021790555060608201518160020160016101000a81548173ffffffffffffffffffffffffffffffffffffffff021916908373ffffffffffffffffffffffffffffffffffffffff1602179055506080820151816003015560a08201518160040160006101000a81548160ff02191690831515021790555060c082015181600501908051906020019061090d92919061143c565b5060e08201518160060160006101000a81548160ff02191690831515021790555061010082015181600701908051906020019061094b92919061143c565b509050507f05d0fb833127fc08168556d0e7ca9554fc3f6bc843b3b7d2bf1c35aea6bab66060005482600060405161098593929190611f92565b60405180910390a150565b600060606000806000806060600060606000600160008c815260200190815260200160002060405180610120016040529081600082015481526020016001820180546109db90611fff565b80601f0160208091040260200160405190810160405280929190818152602001828054610a0790611fff565b8015610a545780601f10610a2957610100808354040283529160200191610a54565b820191906000526020600020905b815481529060010190602001808311610a3757829003601f168201915b505050505081526020016002820160009054906101000a900460ff161515151581526020016002820160019054906101000a900473ffffffffffffffffffffffffffffffffffffffff1673ffffffffffffffffffffffffffffffffffffffff1673ffffffffffffffffffffffffffffffffffffffff168152602001600382015481526020016004820160009054906101000a900460ff16151515158152602001600582018054610b0390611fff565b80601f0160208091040260200160405190810160405280929190818152602001828054610b2f90611fff565b8015610b7c5780601f10610b5157610100808354040283529160200191610b7c565b820191906000526020600020905b815481529060010190602001808311610b5f57829003601f168201915b505050505081526020016006820160009054906101000a900460ff16151515158152602001600782018054610bb090611fff565b80601f0160208091040260200160405190810160405280929190818152602001828054610bdc90611fff565b8015610c295780601f10610bfe57610100808354040283529160200191610c29565b820191906000526020600020905b815481529060010190602001808311610c0c57829003601f168201915b5050505050815250509050806000015181602001518260400151836060015184608001518560a001518660c001518760e00151886101000151995099509950995099509950995099509950509193959799909294969850565b60006001600085815260200190815260200160002090506000816003015411610ce0576040517f08c379a0000000000000000000000000000000000000000000000000000000008152600401610cd790611e23565b60405180910390fd5b600073ffffffffffffffffffffffffffffffffffffffff168160020160019054906101000a900473ffffffffffffffffffffffffffffffffffffffff1673ffffffffffffffffffffffffffffffffffffffff1603610d73576040517f08c379a0000000000000000000000000000000000000000000000000000000008152600401610d6a90611e8f565b60405180910390fd5b3373ffffffffffffffffffffffffffffffffffffffff168160020160019054906101000a900473ffffffffffffffffffffffffffffffffffffffff1673ffffffffffffffffffffffffffffffffffffffff1614610e05576040517f08c379a0000000000000000000000000000000000000000000000000000000008152600401610dfc9061207c565b60405180910390fd5b8060060160009054906101000a900460ff1615610e57576040517f08c379a0000000000000000000000000000000000000000000000000000000008152600401610e4e906120e8565b60405180910390fd5b8282826005019190610e6a9291906114c2565b5060018160060160006101000a81548160ff02191690831515021790555060405180602001604052806000815250816007019080519060200190610eaf92919061143c565b5050505050565b60006001600083815260200190815260200160002090508060020160009054906101000a900460ff16158160020160006101000a81548160ff0219169083151502179055507fe21fa966ca5cd02748c0752352d18c48165e61cb55b4c29cccf924b5a95fcff1828260020160009054906101000a900460ff16604051610f3d929190612108565b60405180910390a15050565b600047905090565b60006001600083815260200190815260200160002090506000816003015411610faf576040517f08c379a0000000000000000000000000000000000000000000000000000000008152600401610fa69061217d565b60405180910390fd5b8060060160009054906101000a900460ff16611000576040517f08c379a0000000000000000000000000000000000000000000000000000000008152600401610ff7906121e9565b60405180910390fd5b8060040160009054906101000a900460ff1615611052576040517f08c379a000000000000000000000000000000000000000000000000000000000815260040161104990612255565b60405180910390fd5b600115158160020160009054906101000a900460ff161515146110aa576040517f08c379a00000000000000000000000000000000000000000000000000000000081526004016110a1906122c1565b60405180910390fd5b60008160030154905060018260040160006101000a81548160ff021916908315150217905550600082600301819055508160020160019054906101000a900473ffffffffffffffffffffffffffffffffffffffff1673ffffffffffffffffffffffffffffffffffffffff166108fc829081150290604051600060405180830381858888f19350505050158015611144573d6000803e3d6000fd5b507ff62b94a4670e94cf5b2d4e95f5ee7efa5b15d1fa8de141a51cc4eea5c75a9da783828460020160019054906101000a900473ffffffffffffffffffffffffffffffffffffffff1660405161119c939291906122e1565b60405180910390a1505050565b60016020528060005260406000206000915090508060000154908060010180546111d290611fff565b80601f01602080910402602001604051908101604052809291908181526020018280546111fe90611fff565b801561124b5780601f106112205761010080835404028352916020019161124b565b820191906000526020600020905b81548152906001019060200180831161122e57829003601f168201915b5050505050908060020160009054906101000a900460ff16908060020160019054906101000a900473ffffffffffffffffffffffffffffffffffffffff16908060030154908060040160009054906101000a900460ff16908060050180546112b290611fff565b80601f01602080910402602001604051908101604052809291908181526020018280546112de90611fff565b801561132b5780601f106113005761010080835404028352916020019161132b565b820191906000526020600020905b81548152906001019060200180831161130e57829003601f168201915b5050505050908060060160009054906101000a900460ff169080600701805461135390611fff565b80601f016020809104026020016040519081016040528092919081815260200182805461137f90611fff565b80156113cc5780601f106113a1576101008083540402835291602001916113cc565b820191906000526020600020905b8154815290600101906020018083116113af57829003601f168201915b5050505050905089565b60006001600083815260200190815260200160002060020160019054906101000a900473ffffffffffffffffffffffffffffffffffffffff169050919050565b60005481565b600060016000838152602001908152602001600020600301549050919050565b82805461144890611fff565b90600052602060002090601f01602090048101928261146a57600085556114b1565b82601f1061148357805160ff19168380011785556114b1565b828001600101855582156114b1579182015b828111156114b0578251825591602001919060010190611495565b5b5090506114be9190611548565b5090565b8280546114ce90611fff565b90600052602060002090601f0160209004810192826114f05760008555611537565b82601f1061150957803560ff1916838001178555611537565b82800160010185558215611537579182015b8281111561153657823582559160200191906001019061151b565b5b5090506115449190611548565b5090565b5b80821115611561576000816000905550600101611549565b5090565b6000604051905090565b600080fd5b600080fd5b6000819050919050565b61158c81611579565b811461159757600080fd5b50565b6000813590506115a981611583565b92915050565b600073ffffffffffffffffffffffffffffffffffffffff82169050919050565b60006115da826115af565b9050919050565b6115ea816115cf565b81146115f557600080fd5b50565b600081359050611607816115e1565b92915050565b600080604083850312156116245761162361156f565b5b60006116328582860161159a565b9250506020611643858286016115f8565b9150509250929050565b6000602082840312156116635761166261156f565b5b60006116718482850161159a565b91505092915050565b600080fd5b600080fd5b600080fd5b60008083601f84011261169f5761169e61167a565b5b8235905067ffffffffffffffff8111156116bc576116bb61167f565b5b6020830191508360018202830111156116d8576116d7611684565b5b9250929050565b6000806000604084860312156116f8576116f761156f565b5b60006117068682870161159a565b935050602084013567ffffffffffffffff81111561172757611726611574565b5b61173386828701611689565b92509250509250925092565b600080fd5b6000601f19601f8301169050919050565b7f4e487b7100000000000000000000000000000000000000000000000000000000600052604160045260246000fd5b61178d82611744565b810181811067ffffffffffffffff821117156117ac576117ab611755565b5b80604052505050565b60006117bf611565565b90506117cb8282611784565b919050565b600067ffffffffffffffff8211156117eb576117ea611755565b5b6117f482611744565b9050602081019050919050565b82818337600083830152505050565b600061182361181e846117d0565b6117b5565b90508281526020810184848401111561183f5761183e61173f565b5b61184a848285611801565b509392505050565b600082601f8301126118675761186661167a565b5b8135611877848260208601611810565b91505092915050565b6000602082840312156118965761189561156f565b5b600082013567ffffffffffffffff8111156118b4576118b3611574565b5b6118c084828501611852565b91505092915050565b6118d281611579565b82525050565b600081519050919050565b600082825260208201905092915050565b60005b838110156119125780820151818401526020810190506118f7565b83811115611921576000848401525b50505050565b6000611932826118d8565b61193c81856118e3565b935061194c8185602086016118f4565b61195581611744565b840191505092915050565b60008115159050919050565b61197581611960565b82525050565b6000611986826115af565b9050919050565b6119968161197b565b82525050565b6000610120820190506119b2600083018c6118c9565b81810360208301526119c4818b611927565b90506119d3604083018a61196c565b6119e0606083018961198d565b6119ed60808301886118c9565b6119fa60a083018761196c565b81810360c0830152611a0c8186611927565b9050611a1b60e083018561196c565b818103610100830152611a2e8184611927565b90509a9950505050505050505050565b6000602082019050611a5360008301846118c9565b92915050565b611a62816115cf565b82525050565b600061012082019050611a7e600083018c6118c9565b8181036020830152611a90818b611927565b9050611a9f604083018a61196c565b611aac6060830189611a59565b611ab960808301886118c9565b611ac660a083018761196c565b81810360c0830152611ad88186611927565b9050611ae760e083018561196c565b818103610100830152611afa8184611927565b90509a9950505050505050505050565b6000602082019050611b1f600083018461198d565b92915050565b7f416c72656164792066756e646564000000000000000000000000000000000000600082015250565b6000611b5b600e836118e3565b9150611b6682611b25565b602082019050919050565b60006020820190508181036000830152611b8a81611b4e565b9050919050565b7f416c726561647920706169640000000000000000000000000000000000000000600082015250565b6000611bc7600c836118e3565b9150611bd282611b91565b602082019050919050565b60006020820190508181036000830152611bf681611bba565b9050919050565b7f53656e6420455448000000000000000000000000000000000000000000000000600082015250565b6000611c336008836118e3565b9150611c3e82611bfd565b602082019050919050565b60006020820190508181036000830152611c6281611c26565b9050919050565b6000819050919050565b6000611c8e611c89611c84846115af565b611c69565b6115af565b9050919050565b6000611ca082611c73565b9050919050565b6000611cb282611c95565b9050919050565b611cc281611ca7565b82525050565b6000606082019050611cdd60008301866118c9565b611cea6020830185611cb9565b611cf760408301846118c9565b949350505050565b7f50726f6f66206e6f74207375626d697474656420796574000000000000000000600082015250565b6000611d356017836118e3565b9150611d4082611cff565b602082019050919050565b60006020820190508181036000830152611d6481611d28565b9050919050565b7f416c726561647920617070726f76656400000000000000000000000000000000600082015250565b6000611da16010836118e3565b9150611dac82611d6b565b602082019050919050565b60006020820190508181036000830152611dd081611d94565b9050919050565b7f5461736b206e6f742066756e6465640000000000000000000000000000000000600082015250565b6000611e0d600f836118e3565b9150611e1882611dd7565b602082019050919050565b60006020820190508181036000830152611e3c81611e00565b9050919050565b7f4e6f20696e666c75656e63657220736574000000000000000000000000000000600082015250565b6000611e796011836118e3565b9150611e8482611e43565b602082019050919050565b60006020820190508181036000830152611ea881611e6c565b9050919050565b7f4e6f2070726f6f66207375626d69747465642079657400000000000000000000600082015250565b6000611ee56016836118e3565b9150611ef082611eaf565b602082019050919050565b60006020820190508181036000830152611f1481611ed8565b9050919050565b7f4e487b7100000000000000000000000000000000000000000000000000000000600052601160045260246000fd5b6000611f5582611579565b91507fffffffffffffffffffffffffffffffffffffffffffffffffffffffffffffffff8203611f8757611f86611f1b565b5b600182019050919050565b6000606082019050611fa760008301866118c9565b8181036020830152611fb98185611927565b9050611fc8604083018461196c565b949350505050565b7f4e487b7100000000000000000000000000000000000000000000000000000000600052602260045260246000fd5b6000600282049050600182168061201757607f821691505b60208210810361202a57612029611fd0565b5b50919050565b7f4f6e6c792061737369676e656420696e666c75656e6365720000000000000000600082015250565b60006120666018836118e3565b915061207182612030565b602082019050919050565b6000602082019050818103600083015261209581612059565b9050919050565b7f416c7265616479207375626d6974746564000000000000000000000000000000600082015250565b60006120d26011836118e3565b91506120dd8261209c565b602082019050919050565b60006020820190508181036000830152612101816120c5565b9050919050565b600060408201905061211d60008301856118c9565b61212a602083018461196c565b9392505050565b7f4e6f206d6f6e6579206c6f636b65640000000000000000000000000000000000600082015250565b6000612167600f836118e3565b915061217282612131565b602082019050919050565b600060208201905081810360008301526121968161215a565b9050919050565b7f50726f6f66206e6f74207375626d697474656400000000000000000000000000600082015250565b60006121d36013836118e3565b91506121de8261219d565b602082019050919050565b60006020820190508181036000830152612202816121c6565b9050919050565b7f416c72656164792072656c656173656400000000000000000000000000000000600082015250565b600061223f6010836118e3565b915061224a82612209565b602082019050919050565b6000602082019050818103600083015261226e81612232565b9050919050565b7f5461736b206e6f7420636f6d706c657465640000000000000000000000000000600082015250565b60006122ab6012836118e3565b91506122b682612275565b602082019050919050565b600060208201905081810360008301526122da8161229e565b9050919050565b60006060820190506122f660008301866118c9565b61230360208301856118c9565b6123106040830184611cb9565b94935050505056fea264697066735822122004dd3efbdede4d313afece5d502f49fca22c7a5582a8c569334b263981300a0764736f6c634300080d0033",
  "immutableReferences": {},
  "source": "// SPDX-License-Identifier: MIT\npragma solidity ^0.8.13;\n\ncontract Wave {\n    uint public taskCount = 0;\n\n    struct Task {\n        uint id;\n        string content;\n        bool completed;\n        address payable influencer;\n        uint256 value;\n        bool paid;\n        string proof;\n        bool proofSubmitted; \n        string rejectionNote;\n    }\n\n    mapping(uint => Task) public tasks;\n\n    event TaskCreated(\n        uint id,\n        string content,\n        bool completed\n    );\n\n    event TaskCompleted(\n        uint id,\n        bool completed\n    );\n\n    // NEW EVENTS\n    event TaskFunded(uint id, address influencer, uint256 value);\n    event TaskPaid(uint id, uint256 value, address influencer);\n\n    constructor() {\n        createTask(\"Film content for campaign\");\n    }\n\n    function createTask(string memory _content) public {\n        taskCount++;\n        tasks[taskCount] = Task({\n            id: taskCount,\n            content: _content,\n            completed: false,\n            influencer: payable(address(0)),\n            value: 0,\n            paid: false,\n            proof: \"\",\n            proofSubmitted: false,\n            rejectionNote: \"\"\n        });\n\n        emit TaskCreated(taskCount, _content, false);\n    }\n\n    function toggleCompleted(uint _id) public {\n        Task storage _task = tasks[_id];\n        _task.completed = !_task.completed;\n        emit TaskCompleted(_id, _task.completed);\n    }\n\n    // 1 BRAND LOCKS ETH INTO THE TASK\n\n    function fundTask(uint _id, address payable _influencer) public payable {\n        Task storage _task = tasks[_id];\n\n        require(_task.value == 0, \"Already funded\");\n        require(!_task.paid, \"Already paid\");\n        require(msg.value > 0, \"Send ETH\");\n\n        _task.influencer = _influencer;\n        _task.value = msg.value;\n\n        emit TaskFunded(_id, _influencer, msg.value);\n    }\nfunction submitProof(uint _id, string calldata _proof) external {\n    Task storage task = tasks[_id];\n\n    require(task.value > 0, \"Task not funded\");\n    require(task.influencer != address(0), \"No influencer set\");\n    require(task.influencer == msg.sender, \"Only assigned influencer\");\n    require(!task.proofSubmitted, \"Already submitted\");\n\n    task.proof = _proof;\n    task.proofSubmitted = true;\n    task.rejectionNote = \"\";\n}\nfunction rejectProof(uint _id, string calldata _note) external {\n    Task storage task = tasks[_id];\n\n    require(task.value > 0, \"Task not funded\");\n    require(task.influencer != address(0), \"No influencer set\");\n    require(task.proofSubmitted == true, \"No proof submitted yet\");\n    require(task.completed == false, \"Already approved\");\n\n    // Reset proof + add note\n    task.proof = \"\";\n    task.proofSubmitted = false;\n    task.rejectionNote = _note;\n}\nfunction approveTask(uint _id) public {\n    Task storage task = tasks[_id];\n\n    require(task.proofSubmitted, \"Proof not submitted yet\");\n    require(!task.completed, \"Already approved\");\n\n    task.completed = true;\n}\n\n\n\n    // 2️ BRAND RELEASES THE ETH TO INFLUENCER\n   \n    function releasePayment(uint _id) public {\n        Task storage _task = tasks[_id];\n\n        require(_task.value > 0, \"No money locked\");\n        require(_task.proofSubmitted, \"Proof not submitted\");\n        require(!_task.paid, \"Already released\");\n        require(_task.completed == true, \"Task not completed\");\n        uint256 amount = _task.value;\n\n        _task.paid = true;\n        _task.value = 0;\n\n        _task.influencer.transfer(amount);\n        emit TaskPaid(_id, amount, _task.influencer);\n    }\n\n//  VIEW: How much ETH is inside the whole smart contract\n\nfunction getContractBalance() public view returns (uint256) {\n    return address(this).balance;\n}\n\n\n//  VIEW: How much ETH is locked in a specific task\n\nfunction getTaskBalance(uint _id) public view returns (uint256) {\n    return tasks[_id].value;\n}\n\n//  VIEW: Which influencer is assigned to this task\n\nfunction getTaskInfluencer(uint _id) public view returns (address) {\n    return tasks[_id].influencer;\n}\nfunction getTask(uint _id) public view returns (\n    uint id,\n    string memory content,\n    bool completed,\n    address influencer,\n    uint256 value,\n    bool paid,\n    string memory proof,\n    bool proofSubmitted,\n     string memory rejectionNote\n) {\n    Task memory t = tasks[_id];\n    return (\n        t.id,\n        t.content,\n        t.completed,\n        t.influencer,\n        t.value,\n        t.paid,\n        t.proof,\n        t.proofSubmitted,\n        t.rejectionNote\n    );\n}\n\n}\n",
  "sourcePath": "/Users/debramulwa/Desktop/wave-test/contracts/Wave.sol",
  "compiler": {
    "name": "solc",
    "version": "0.8.13+commit.abaa5c0e.Emscripten.clang"
  },
  "schemaVersion": "3.4.16",
  "updatedAt": "2026-02-17T13:39:41.538Z",
  "devdoc": {
    "kind": "dev",
    "methods": {},
    "version": 1
  },
  "userdoc": {
    "kind": "user",
    "methods": {},
    "version": 1
  }
}